{
  "contractName": "CurveArb",
  "abi": [
    {
      "inputs": [],
      "stateMutability": "nonpayable",
      "type": "constructor"
    },
    {
      "stateMutability": "nonpayable",
      "type": "fallback"
    },
    {
      "inputs": [
        {
          "internalType": "address",
          "name": "_sender",
          "type": "address"
        },
        {
          "internalType": "uint256",
          "name": "_amount0",
          "type": "uint256"
        },
        {
          "internalType": "uint256",
          "name": "_amount1",
          "type": "uint256"
        },
        {
          "internalType": "bytes",
          "name": "_data",
          "type": "bytes"
        }
      ],
      "name": "uniswapV2Call",
      "outputs": [],
      "stateMutability": "nonpayable",
      "type": "function"
    },
    {
      "stateMutability": "payable",
      "type": "receive"
    },
    {
      "inputs": [
        {
          "internalType": "bool",
          "name": "_tri",
          "type": "bool"
        },
        {
          "internalType": "int128",
          "name": "_borrow",
          "type": "int128"
        },
        {
          "internalType": "int128",
          "name": "_pay",
          "type": "int128"
        },
        {
          "internalType": "uint256",
          "name": "_borrowAmount",
          "type": "uint256"
        },
        {
          "internalType": "address payable",
          "name": "_profiteer",
          "type": "address"
        },
        {
          "internalType": "uint256",
          "name": "_deadline",
          "type": "uint256"
        }
      ],
      "name": "flashSwapDeadline",
      "outputs": [],
      "stateMutability": "nonpayable",
      "type": "function"
    },
    {
      "inputs": [
        {
          "internalType": "bool",
          "name": "_tri",
          "type": "bool"
        },
        {
          "internalType": "int128",
          "name": "_borrow",
          "type": "int128"
        },
        {
          "internalType": "int128",
          "name": "_pay",
          "type": "int128"
        },
        {
          "internalType": "uint256",
          "name": "_borrowAmount",
          "type": "uint256"
        },
        {
          "internalType": "address payable",
          "name": "_profiteer",
          "type": "address"
        }
      ],
      "name": "flashSwap",
      "outputs": [],
      "stateMutability": "nonpayable",
      "type": "function"
    },
    {
      "inputs": [
        {
          "internalType": "address",
          "name": "_token",
          "type": "address"
        },
        {
          "internalType": "address payable",
          "name": "_to",
          "type": "address"
        }
      ],
      "name": "extractFunds",
      "outputs": [],
      "stateMutability": "nonpayable",
      "type": "function"
    },
    {
      "inputs": [
        {
          "internalType": "address",
          "name": "_input",
          "type": "address"
        }
      ],
      "name": "getBalanceOf",
      "outputs": [
        {
          "internalType": "uint256",
          "name": "",
          "type": "uint256"
        }
      ],
      "stateMutability": "view",
      "type": "function"
    }
  ],
  "bytecode": "0x600080546001600160a01b0319166001908117909155610100604052736b175474e89094c44da98b954eedeac495271d0f608090815273a0b86991c6218b36c1d19d4a2e9eb0ce3606eb4860a05273dac17f958d2ee523a2206206994597c13d831ec760c0527357ab1ec28d129707052df4df418d58a2d46d5f5160e0526200008b91906004620000a0565b503480156200009957600080fd5b506200012b565b828054828255906000526020600020908101928215620000f8579160200282015b82811115620000f857825182546001600160a01b0319166001600160a01b03909116178255602090920191600190910190620000c1565b50620001069291506200010a565b5090565b5b80821115620001065780546001600160a01b03191681556001016200010b565b611b14806200013b6000396000f3fe60806040526004361061004e5760003560e01c806302b022a2146100645780630b94796b146100c157806310d1e85c146100fc5780636eeeaf01146101955780639b96eece146101ea57610055565b3661005557005b34801561006157600080fd5b50005b34801561007057600080fd5b506100bf600480360360c081101561008757600080fd5b5080351515906020810135600f90810b91604081013590910b906060810135906001600160a01b036080820135169060a0013561022f565b005b3480156100cd57600080fd5b506100bf600480360360408110156100e457600080fd5b506001600160a01b0381358116916020013516610317565b34801561010857600080fd5b506100bf6004803603608081101561011f57600080fd5b6001600160a01b03823516916020810135916040820135919081019060808101606082013564010000000081111561015657600080fd5b82018360208201111561016857600080fd5b8035906020019184600183028401116401000000008311171561018a57600080fd5b50909250905061037e565b3480156101a157600080fd5b506100bf600480360360a08110156101b857600080fd5b5080351515906020810135600f90810b91604081013590910b90606081013590608001356001600160a01b03166105e7565b3480156101f657600080fd5b5061021d6004803603602081101561020d57600080fd5b50356001600160a01b0316610685565b60408051918252519081900360200190f35b80431115610278576040805162461bcd60e51b8152602060048201526011602482015270111958591b1a5b9948195e18d959591959607a1b604482015290519081900360640190fd5b6000600185600f0b8154811061028a57fe5b6000918252602082200154600180546001600160a01b03909216935090600f89900b9081106102b557fe5b6000918252602091829020015460408051600f8b810b948201949094529289900b83820152805180840382018152606090930190526001600160a01b031691506103028983888685610716565b61030c8386610317565b505050505050505050565b600061032283610685565b90506001600160a01b03831661036e576040516001600160a01b0383169082156108fc029083906000818181858888f19350505050158015610368573d6000803e3d6000fd5b50610379565b610379838383610739565b505050565b6001600160a01b03851630146103db576040805162461bcd60e51b815260206004820152601f60248201527f6f6e6c79207468697320636f6e7472616374206d617920696e69746961746500604482015290519081900360640190fd5b6000546001600160a01b031633146104245760405162461bcd60e51b8152600401808060200182810382526029815260200180611ab66029913960400191505060405180910390fd5b600080600080606080878760c081101561043d57600080fd5b60ff823516916001600160a01b0360208201358116926040830135926060810135909216919081019060a08101608082013564010000000081111561048157600080fd5b82018360208201111561049357600080fd5b803590602001918460018302840111640100000000831117156104b557600080fd5b91908080601f016020809104026020016040519081016040528093929190818152602001838380828437600092019190915250929594936020810193503591505064010000000081111561050857600080fd5b82018360208201111561051a57600080fd5b8035906020019184600183028401116401000000008311171561053c57600080fd5b91908080601f016020809104026020016040519081016040528093929190818152602001838380828437600081840152601f19601f820116905080830192505050505050509192919290505050955095509550955095509550600060018111156105a257fe5b8660018111156105ae57fe5b14156105cc576105c18585853385610853565b5050505050506105e0565b6105c18585858585610982565b5050505050505b5050505050565b6000600184600f0b815481106105f957fe5b6000918252602082200154600180546001600160a01b03909216935090600f88900b90811061062457fe5b6000918252602091829020015460408051600f8a810b948201949094529288900b83820152805180840382018152606090930190526001600160a01b031691506106718883878685610716565b61067b8385610317565b5050505050505050565b60006001600160a01b03821661069c575047610711565b604080516370a0823160e01b815230600482015290516001600160a01b038416916370a08231916024808301926020929190829003018186803b1580156106e257600080fd5b505afa1580156106f6573d6000803e3d6000fd5b505050506040513d602081101561070c57600080fd5b505190505b919050565b841561072d5761072884848484610da9565b6105e0565b6107288484848461110f565b6001600160a01b03831673dac17f958d2ee523a2206206994597c13d831ec714156107d257826001600160a01b031663a9059cbb83836040518363ffffffff1660e01b815260040180836001600160a01b0316815260200182815260200192505050600060405180830381600087803b1580156107b557600080fd5b505af11580156107c9573d6000803e3d6000fd5b50505050610379565b826001600160a01b031663a9059cbb83836040518363ffffffff1660e01b815260040180836001600160a01b0316815260200182815260200192505050602060405180830381600087803b15801561082957600080fd5b505af115801561083d573d6000803e3d6000fd5b505050506040513d60208110156105e057600080fd5b60008054604080516370a0823160e01b81526001600160a01b039283166004820181905291519193928916916370a0823191602480820192602092909190829003018186803b1580156108a557600080fd5b505afa1580156108b9573d6000803e3d6000fd5b505050506040513d60208110156108cf57600080fd5b5051604080516370a0823160e01b81526001600160a01b0385811660048301529151929350600092918816916370a0823191602480820192602092909190829003018186803b15801561092157600080fd5b505afa158015610935573d6000803e3d6000fd5b505050506040513d602081101561094b57600080fd5b5051905060006103e583028883026103e8028161096457fe5b0460010190506109778989898489611556565b61030c878783610739565b60008083806020019051604081101561099a57600080fd5b50805160209182015160408051630dfe168160e01b815290519295509093506000926001600160a01b03861692630dfe1681926004808201939291829003018186803b1580156109e957600080fd5b505afa1580156109fd573d6000803e3d6000fd5b505050506040513d6020811015610a1357600080fd5b50516040805163d21220a760e01b815290519192506000916001600160a01b0386169163d21220a7916004808301926020929190829003018186803b158015610a5b57600080fd5b505afa158015610a6f573d6000803e3d6000fd5b505050506040513d6020811015610a8557600080fd5b5051905060006001600160a01b038a811690841614610aa5576000610aa7565b885b90506000826001600160a01b03168b6001600160a01b031614610acb576000610acd565b895b905073c02aaa39b223fe8d0a0e5c4f27ead9083c756cc26001600160a01b031663a9059cbb87876040518363ffffffff1660e01b815260040180836001600160a01b0316815260200182815260200192505050602060405180830381600087803b158015610b3a57600080fd5b505af1158015610b4e573d6000803e3d6000fd5b505050506040513d6020811015610b6457600080fd5b505060408051602081018083526000808352925163022c0d9f60e01b8152600481018681526024820186905230604483018190526080606484019081528551608485015285516001600160a01b038e169763022c0d9f978b978b979596919591949360a4909201929091908190849084905b83811015610bee578181015183820152602001610bd6565b50505050905090810190601f168015610c1b5780820380516001836020036101000a031916815260200191505b5095505050505050600060405180830381600087803b158015610c3d57600080fd5b505af1158015610c51573d6000803e3d6000fd5b505060008054604080516370a0823160e01b81526001600160a01b0390921660048301819052905190945091925073c02aaa39b223fe8d0a0e5c4f27ead9083c756cc2916370a0823191602480820192602092909190829003018186803b158015610cbb57600080fd5b505afa158015610ccf573d6000803e3d6000fd5b505050506040513d6020811015610ce557600080fd5b5051604080516370a0823160e01b81526001600160a01b0385811660048301529151929350600092918e16916370a0823191602480820192602092909190829003018186803b158015610d3757600080fd5b505afa158015610d4b573d6000803e3d6000fd5b505050506040513d6020811015610d6157600080fd5b5051905060006103e583028983026103e80281610d7a57fe5b046001019050610d8d8f8f8f848f611556565b610d988d8583610739565b505050505050505050505050505050565b6040805163e6a4390560e01b81526001600160a01b038616600482015273c02aaa39b223fe8d0a0e5c4f27ead9083c756cc260248201529051600091735c69bee701ef814a2b6a3edd4b1652cb9cc5aa6f9163e6a4390591604480820192602092909190829003018186803b158015610e2157600080fd5b505afa158015610e35573d6000803e3d6000fd5b505050506040513d6020811015610e4b57600080fd5b505190506001600160a01b038116610e945760405162461bcd60e51b8152600401808060200182810382526028815260200180611a696028913960400191505060405180910390fd5b6040805163e6a4390560e01b81526001600160a01b038516600482015273c02aaa39b223fe8d0a0e5c4f27ead9083c756cc260248201529051735c69bee701ef814a2b6a3edd4b1652cb9cc5aa6f9163e6a43905916044808301926020929190829003018186803b158015610f0857600080fd5b505afa158015610f1c573d6000803e3d6000fd5b505050506040513d6020811015610f3257600080fd5b5051600080546001600160a01b0319166001600160a01b0392831617908190551680610f8f5760405162461bcd60e51b8152600401808060200182810382526025815260200180611a916025913960400191505060405180910390fd5b6000866001600160a01b03166370a08231846040518263ffffffff1660e01b815260040180826001600160a01b0316815260200191505060206040518083038186803b158015610fde57600080fd5b505afa158015610ff2573d6000803e3d6000fd5b505050506040513d602081101561100857600080fd5b5051905085811015611056576040805162461bcd60e51b81526020600482015260126024820152715f616d6f756e7420697320746f6f2062696760701b604482015290519081900360640190fd5b604080516370a0823160e01b81526001600160a01b038516600482015290518783039160009173c02aaa39b223fe8d0a0e5c4f27ead9083c756cc2916370a08231916024808301926020929190829003018186803b1580156110b757600080fd5b505afa1580156110cb573d6000803e3d6000fd5b505050506040513d60208110156110e157600080fd5b5051905060006103e583028983026103e802816110fa57fe5b0460010190506105d98a8a8a8989868d611619565b6040805163e6a4390560e01b81526001600160a01b038681166004830152841660248201529051735c69bee701ef814a2b6a3edd4b1652cb9cc5aa6f9163e6a43905916044808301926020929190829003018186803b15801561117157600080fd5b505afa158015611185573d6000803e3d6000fd5b505050506040513d602081101561119b57600080fd5b5051600080546001600160a01b0319166001600160a01b039283161790819055168061120e576040805162461bcd60e51b815260206004820181905260248201527f5265717565737465642070616972206973206e6f7420617661696c61626c652e604482015290519081900360640190fd5b6000816001600160a01b0316630dfe16816040518163ffffffff1660e01b815260040160206040518083038186803b15801561124957600080fd5b505afa15801561125d573d6000803e3d6000fd5b505050506040513d602081101561127357600080fd5b50516040805163d21220a760e01b815290519192506000916001600160a01b0385169163d21220a7916004808301926020929190829003018186803b1580156112bb57600080fd5b505afa1580156112cf573d6000803e3d6000fd5b505050506040513d60208110156112e557600080fd5b5051905060006001600160a01b0388811690841614611305576000611307565b865b90506000826001600160a01b0316896001600160a01b03161461132b57600061132d565b875b9050606060008a8a8a604051806020016040528060008152508b6040516020018087600181111561135a57fe5b8152602001866001600160a01b03168152602001858152602001846001600160a01b031681526020018060200180602001838103835285818151815260200191508051906020019080838360005b838110156113c05781810151838201526020016113a8565b50505050905090810190601f1680156113ed5780820380516001836020036101000a031916815260200191505b50838103825284518152845160209182019186019080838360005b83811015611420578181015183820152602001611408565b50505050905090810190601f16801561144d5780820380516001836020036101000a031916815260200191505b50985050505050505050506040516020818303038152906040529050856001600160a01b031663022c0d9f848430856040518563ffffffff1660e01b815260040180858152602001848152602001836001600160a01b0316815260200180602001828103825283818151815260200191508051906020019080838360005b838110156114e35781810151838201526020016114cb565b50505050905090810190601f1680156115105780820380516001836020036101000a031916815260200191505b5095505050505050600060405180830381600087803b15801561153257600080fd5b505af1158015611546573d6000803e3d6000fd5b5050505050505050505050505050565b60008082806020019051604081101561156e57600080fd5b508051602090910151909250905061159b8773a5407eae9ba41422680e2e00537571bcc53efbfd88611995565b60408051635320bf6b60e11b8152600f84810b600483015283900b602482015260448101889052600060648201819052915173a5407eae9ba41422680e2e00537571bcc53efbfd9263a6417ed6926084808201939182900301818387803b15801561160557600080fd5b505af11580156105d9573d6000803e3d6000fd5b600080846001600160a01b0316630dfe16816040518163ffffffff1660e01b815260040160206040518083038186803b15801561165557600080fd5b505afa158015611669573d6000803e3d6000fd5b505050506040513d602081101561167f57600080fd5b50516040805163d21220a760e01b815290519192506000916001600160a01b0388169163d21220a7916004808301926020929190829003018186803b1580156116c757600080fd5b505afa1580156116db573d6000803e3d6000fd5b505050506040513d60208110156116f157600080fd5b50519050600073c02aaa39b223fe8d0a0e5c4f27ead9083c756cc26001600160a01b03841614611722576000611724565b855b9050600073c02aaa39b223fe8d0a0e5c4f27ead9083c756cc26001600160a01b03841614611753576000611755565b865b604080516001600160a01b038c1660208201528082018a905281518082038301815260608281019093529293506001908f908f908f9086908d9060800180878152602001866001600160a01b03168152602001858152602001846001600160a01b031681526020018060200180602001838103835285818151815260200191508051906020019080838360005b838110156117fa5781810151838201526020016117e2565b50505050905090810190601f1680156118275780820380516001836020036101000a031916815260200191505b50838103825284518152845160209182019186019080838360005b8381101561185a578181015183820152602001611842565b50505050905090810190601f1680156118875780820380516001836020036101000a031916815260200191505b50985050505050505050506040516020818303038152906040529050896001600160a01b031663022c0d9f858530856040518563ffffffff1660e01b815260040180858152602001848152602001836001600160a01b0316815260200180602001828103825283818151815260200191508051906020019080838360005b8381101561191d578181015183820152602001611905565b50505050905090810190601f16801561194a5780820380516001836020036101000a031916815260200191505b5095505050505050600060405180830381600087803b15801561196c57600080fd5b505af1158015611980573d6000803e3d6000fd5b50505050505050505050979650505050505050565b6001600160a01b03831673dac17f958d2ee523a2206206994597c13d831ec71415611a1157826001600160a01b031663095ea7b383836040518363ffffffff1660e01b815260040180836001600160a01b0316815260200182815260200192505050600060405180830381600087803b1580156107b557600080fd5b826001600160a01b031663095ea7b383836040518363ffffffff1660e01b815260040180836001600160a01b0316815260200182815260200192505050602060405180830381600087803b15801561082957600080fdfe52657175657374656420626f72726f7720746f6b656e206973206e6f7420617661696c61626c652e5265717565737465642070617920746f6b656e206973206e6f7420617661696c61626c652e6f6e6c79207065726d697373696f6e656420556e6973776170563220706169722063616e2063616c6ca264697066735822122075a855483c5621c775dc31d813bd6d2bf86fef348fed4320baa32b8ea188e41564736f6c63430007010033",
  "immutableReferences": {},
  "source": "pragma solidity 0.7.1;\r\n\r\n// This is only used for testing\r\ninterface Router02 {\r\n  function swapExactTokensForTokens(uint amountIn, uint amountOutMin, address[] calldata path, address to, uint deadline) external returns (uint[] memory amounts);\r\n}\r\n\r\n\r\ninterface IUniswapV2Factory {\r\n  function getPair(address tokenA, address tokenB) external view returns (address pair);\r\n}\r\n\r\ninterface CurveFi {\r\n  function exchange_underlying(int128 i, int128 j, uint256 dx, uint256 min_dy) external;\r\n}\r\n\r\ninterface IUniswapV2Pair {\r\n  function token0() external view returns (address);\r\n  function token1() external view returns (address);\r\n  function swap(uint amount0Out, uint amount1Out, address to, bytes calldata data) external;\r\n}\r\n\r\ninterface IERC20 {\r\n    function balanceOf(address account) external view returns (uint256);\r\n    function transfer(address recipient, uint256 amount) external returns (bool);\r\n    function approve(address spender, uint256 amount) external returns (bool);\r\n}\r\n\r\ninterface USDTERC20{\r\n    function transfer(address recipient, uint256 amount) external;\r\n    function approve(address spender, uint256 amount) external;\r\n}\r\n\r\ninterface IWETH {\r\n    function withdraw(uint) external;\r\n    function deposit() external payable;\r\n}\r\n\r\nabstract contract UniswapFlashSwapper {\r\n\r\n    enum SwapType {Direct, Triangular}\r\n\r\n    IUniswapV2Factory constant uniswapV2Factory = IUniswapV2Factory(0x5C69bEe701ef814a2B6a3EDD4B1652CB9cc5aA6f);\r\n    address constant WETH = 0xC02aaA39b223FE8D0A0e5C4F27eAD9083C756Cc2;\r\n    address constant USDT = 0xdAC17F958D2ee523a2206206994597C13D831ec7;\r\n    address constant ETH = address(0);\r\n\r\n    address permissionedPairAddress = address(1);\r\n\r\n    // Fallback must be payable\r\n    receive() external payable {}\r\n    fallback() external {}\r\n\r\n    // @notice Flash-borrows _amount of _tokenBorrow from a Uniswap V2 pair and repays using _tokenPay\r\n    // @param _tokenBorrow The address of the token you want to flash-borrow, use 0x0 for ETH\r\n    // @param _amount The amount of _tokenBorrow you will borrow\r\n    // @param _tokenPay The address of the token you want to use to payback the flash-borrow, use 0x0 for ETH\r\n    // @param _userData Data that will be passed to the `execute` function for the user\r\n    // @dev Depending on your use case, you may want to add access controls to this function\r\n    function startSwap(bool _tri, address _tokenBorrow, uint256 _amount, address _tokenPay, bytes memory _userData) internal {        \r\n        if (_tri){\r\n            traingularFlashSwap(_tokenBorrow, _amount, _tokenPay, _userData);\r\n            return;            \r\n        } else {\r\n            simpleFlashSwap(_tokenBorrow, _amount, _tokenPay, _userData);\r\n            return;\r\n        }\r\n    }\r\n\r\n\r\n    // @notice Function is called by the Uniswap V2 pair's `swap` function\r\n    function uniswapV2Call(address _sender, uint _amount0, uint _amount1, bytes calldata _data) external {\r\n        // access control\r\n        require(_sender == address(this), \"only this contract may initiate\");\r\n        require(msg.sender == permissionedPairAddress, \"only permissioned UniswapV2 pair can call\");\r\n\r\n        // NOOP to silence compiler \"unused parameter\" warning\r\n        if (false) { \r\n            // TODO: I believe one of these should be equal to _amount, we should test it!\r\n            _amount0;\r\n            _amount1;\r\n        }\r\n\r\n        // decode data\r\n        (   SwapType _swapType,\r\n            address _tokenBorrow,\r\n            uint _amount,\r\n            address _tokenPay,\r\n            bytes memory _triangleData,\r\n            bytes memory _userData\r\n        ) = abi.decode(_data, (SwapType, address, uint, address, bytes, bytes));\r\n\r\n        if (_swapType == SwapType.Direct) {\r\n            simpleFlashSwapExecute(_tokenBorrow, _amount, _tokenPay, msg.sender, _userData);\r\n            return;\r\n        } else {\r\n            traingularFlashSwapExecute(_tokenBorrow, _amount, _tokenPay, _triangleData, _userData);\r\n            return;\r\n        }\r\n\r\n    }\r\n    \r\n    // @notice This function is used when either the _tokenBorrow or _tokenPay is WETH or ETH\r\n    // @dev Since ~all tokens trade against WETH (if they trade at all), we can use a single UniswapV2 pair to\r\n    //     flash-borrow and repay with the requested tokens.\r\n    // @dev This initiates the flash borrow. See `simpleFlashSwapExecute` for the code that executes after the borrow.\r\n    function simpleFlashSwap(\r\n        address _tokenBorrow,\r\n        uint _amount,\r\n        address _tokenPay,\r\n        bytes memory _userData\r\n    ) private {\r\n        permissionedPairAddress = uniswapV2Factory.getPair(_tokenBorrow, _tokenPay); // is it cheaper to compute this locally?\r\n        address pairAddress = permissionedPairAddress; // gas efficiency\r\n        require(pairAddress != address(0), \"Requested pair is not available.\");\r\n        address token0 = IUniswapV2Pair(pairAddress).token0();\r\n        address token1 = IUniswapV2Pair(pairAddress).token1();\r\n        uint amount0Out = _tokenBorrow == token0 ? _amount : 0;\r\n        uint amount1Out = _tokenBorrow == token1 ? _amount : 0;\r\n        bytes memory data = abi.encode(\r\n            SwapType.Direct,\r\n            _tokenBorrow,\r\n            _amount,\r\n            _tokenPay,\r\n            bytes(\"\"),\r\n            _userData\r\n        );\r\n        IUniswapV2Pair(pairAddress).swap(amount0Out, amount1Out, address(this), data);\r\n    }\r\n\r\n    // @notice This is the code that is executed after `simpleFlashSwap` initiated the flash-borrow\r\n    // @dev When this code executes, this contract will hold the flash-borrowed _amount of _tokenBorrow\r\n    function simpleFlashSwapExecute(\r\n        address _tokenBorrow,\r\n        uint _amount,\r\n        address _tokenPay,\r\n        address _pairAddress,\r\n        bytes memory _userData\r\n    ) private {\r\n        // compute the amount of _tokenPay that needs to be repaid\r\n        address pairAddress = permissionedPairAddress; // gas efficiency\r\n        uint pairBalanceTokenBorrow = IERC20(_tokenBorrow).balanceOf(pairAddress);\r\n        uint pairBalanceTokenPay = IERC20(_tokenPay).balanceOf(pairAddress);\r\n        uint amountToRepay = ((1000 * pairBalanceTokenPay * _amount) / (997 * pairBalanceTokenBorrow)) + 1;\r\n\r\n        // do whatever the user wants\r\n        execute(_tokenBorrow, _amount, _tokenPay, amountToRepay, _userData);\r\n\r\n        //IERC20(_tokenPay).transfer(_pairAddress, amountToRepay);\r\n        tokenTransfer(_tokenPay, _pairAddress, amountToRepay);\r\n    }\r\n\r\n    // @notice This function is used when neither the _tokenBorrow nor the _tokenPay is WETH\r\n    // @dev Since it is unlikely that the _tokenBorrow/_tokenPay pair has more liquidaity than the _tokenBorrow/WETH and\r\n    //     _tokenPay/WETH pairs, we do a triangular swap here. That is, we flash borrow WETH from the _tokenPay/WETH pair,\r\n    //     Then we swap that borrowed WETH for the desired _tokenBorrow via the _tokenBorrow/WETH pair. And finally,\r\n    //     we pay back the original flash-borrow using _tokenPay.\r\n    // @dev This initiates the flash borrow. See `traingularFlashSwapExecute` for the code that executes after the borrow.\r\n    function traingularFlashSwap(address _tokenBorrow, uint _amount, address _tokenPay, bytes memory _userData) private {\r\n        address borrowPairAddress = uniswapV2Factory.getPair(_tokenBorrow, WETH); // is it cheaper to compute this locally?\r\n        require(borrowPairAddress != address(0), \"Requested borrow token is not available.\");\r\n\r\n        permissionedPairAddress = uniswapV2Factory.getPair(_tokenPay, WETH); // is it cheaper to compute this locally?\r\n        address payPairAddress = permissionedPairAddress; // gas efficiency\r\n        require(payPairAddress != address(0), \"Requested pay token is not available.\");\r\n\r\n        // STEP 1: Compute how much WETH will be needed to get _amount of _tokenBorrow out of the _tokenBorrow/WETH pool\r\n        uint pairBalanceTokenBorrowBefore = IERC20(_tokenBorrow).balanceOf(borrowPairAddress);\r\n\r\n        require(pairBalanceTokenBorrowBefore >= _amount, \"_amount is too big\");\r\n        uint pairBalanceTokenBorrowAfter = pairBalanceTokenBorrowBefore - _amount;\r\n        uint pairBalanceWeth = IERC20(WETH).balanceOf(borrowPairAddress);\r\n        uint amountOfWeth = ((1000 * pairBalanceWeth * _amount) / (997 * pairBalanceTokenBorrowAfter)) + 1;\r\n\r\n        // using a helper function here to avoid \"stack too deep\" :(\r\n        traingularFlashSwapHelper(_tokenBorrow, _amount, _tokenPay, borrowPairAddress, payPairAddress, amountOfWeth, _userData);\r\n    }\r\n\r\n    // @notice Helper function for `traingularFlashSwap` to avoid `stack too deep` errors\r\n    function traingularFlashSwapHelper(\r\n        address _tokenBorrow,\r\n        uint _amount,\r\n        address _tokenPay,\r\n        address _borrowPairAddress,\r\n        address _payPairAddress,\r\n        uint _amountOfWeth,\r\n        bytes memory _userData\r\n    ) private returns (uint) {\r\n        // Step 2: Flash-borrow _amountOfWeth WETH from the _tokenPay/WETH pool\r\n        address token0 = IUniswapV2Pair(_payPairAddress).token0();\r\n        address token1 = IUniswapV2Pair(_payPairAddress).token1();\r\n        uint amount0Out = WETH == token0 ? _amountOfWeth : 0;\r\n        uint amount1Out = WETH == token1 ? _amountOfWeth : 0;\r\n        bytes memory triangleData = abi.encode(_borrowPairAddress, _amountOfWeth);\r\n        bytes memory data = abi.encode(SwapType.Triangular, _tokenBorrow, _amount, _tokenPay, triangleData, _userData);\r\n        // initiate the flash swap from UniswapV2\r\n        IUniswapV2Pair(_payPairAddress).swap(amount0Out, amount1Out, address(this), data); // Swap from _payToken -> Weth\r\n    }\r\n\r\n    // @notice This is the code that is executed after `traingularFlashSwap` initiated the flash-borrow\r\n    // @dev When this code executes, this contract will hold the amount of WETH we need in order to get _amount\r\n    //     _tokenBorrow from the _tokenBorrow/WETH pair.\r\n    function traingularFlashSwapExecute(\r\n        address _tokenBorrow,\r\n        uint _amount,\r\n        address _tokenPay,\r\n        bytes memory _triangleData,\r\n        bytes memory _userData\r\n    ) private {\r\n        // decode _triangleData\r\n        (address _borrowPairAddress, uint _amountOfWeth) = abi.decode(_triangleData, (address, uint));\r\n\r\n        // Step 3: Using a normal swap, trade that WETH for _tokenBorrow\r\n        address token0 = IUniswapV2Pair(_borrowPairAddress).token0();\r\n        address token1 = IUniswapV2Pair(_borrowPairAddress).token1();\r\n        uint amount0Out = _tokenBorrow == token0 ? _amount : 0;\r\n        uint amount1Out = _tokenBorrow == token1 ? _amount : 0;\r\n        IERC20(WETH).transfer(_borrowPairAddress, _amountOfWeth); // send our flash-borrowed WETH to the pair\r\n        IUniswapV2Pair(_borrowPairAddress).swap(amount0Out, amount1Out, address(this), bytes(\"\")); // Swap from WETH -> _borrow\r\n\r\n        // compute the amount of _tokenPay that needs to be repaid\r\n        address payPairAddress = permissionedPairAddress; // gas efficiency\r\n        uint pairBalanceWETH = IERC20(WETH).balanceOf(payPairAddress);\r\n        uint pairBalanceTokenPay = IERC20(_tokenPay).balanceOf(payPairAddress);\r\n        uint amountToRepay = ((1000 * pairBalanceTokenPay * _amountOfWeth) / (997 * pairBalanceWETH)) + 1;\r\n\r\n        // Step 4: Do whatever the user wants (arb, liqudiation, etc)\r\n        execute(_tokenBorrow, _amount, _tokenPay, amountToRepay, _userData);\r\n\r\n        // Step 5: Pay back the flash-borrow to the _tokenPay/WETH pool\r\n        tokenTransfer(_tokenPay, payPairAddress, amountToRepay);\r\n    }\r\n\r\n    // @notice This is where the user's custom logic goes\r\n    // @dev When this function executes, this contract will hold _amount of _tokenBorrow\r\n    // @dev It is important that, by the end of the execution of this function, this contract holds the necessary\r\n    //     amount of the original _tokenPay needed to pay back the flash-loan.\r\n    // @dev Paying back the flash-loan happens automatically by the calling function -- do not pay back the loan in this function\r\n    // @dev If you entered `0x0` for _tokenPay when you called `flashSwap`, then make sure this contract hols _amount ETH before this\r\n    //     finishes executing\r\n    // @dev User will override this function on the inheriting contract\r\n    function execute(address _tokenBorrow, uint _amount, address _tokenPay, uint _amountToRepay, bytes memory _userData) virtual internal;\r\n\r\n    function tokenApprove(address _tokenAddress, address _to, uint256 _amount) internal {\r\n        if (_tokenAddress == USDT){\r\n            USDTERC20(_tokenAddress).approve(_to, _amount);\r\n        } else {\r\n            IERC20(_tokenAddress).approve(_to, _amount);\r\n        }\r\n    }\r\n\r\n    function tokenTransfer(address _tokenAddress, address _to, uint256 _amount) internal {\r\n        if (_tokenAddress == USDT){\r\n            USDTERC20(_tokenAddress).transfer(_to, _amount);\r\n        } else {\r\n            IERC20(_tokenAddress).transfer(_to, _amount);\r\n        }       \r\n    } \r\n\r\n}\r\n\r\n\r\n\r\ncontract CurveArb is UniswapFlashSwapper {\r\n\r\n    CurveFi constant curveFiTrader = CurveFi(0xA5407eAE9Ba41422680e2e00537571bcC53efBfD);\r\n    address[] curveCoins = [0x6B175474E89094C44Da98b954EedeAC495271d0F, 0xA0b86991c6218b36c1d19D4a2e9Eb0cE3606eB48, 0xdAC17F958D2ee523a2206206994597C13D831ec7, 0x57Ab1ec28D129707052df4dF418D58a2D46d5f51];\r\n\r\n    constructor() {\r\n    }\r\n\r\n    // @notice Flash-borrows _amount of _tokenBorrow from a Uniswap V2 pair and repays using _tokenPay\r\n    // @param _tokenBorrow The address of the token you want to flash-borrow, use 0x0 for ETH\r\n    // @param _amount The amount of _tokenBorrow you will borrow\r\n    // @param _tokenPay The address of the token you want to use to payback the flash-borrow, use 0x0 for ETH\r\n    // @param _userData Data that will be passed to the `execute` function for the user\r\n    // @dev Depending on your use case, you may want to add access controls to this function\r\n    function flashSwapDeadline(bool _tri, int128 _borrow, int128 _pay, uint256 _borrowAmount, address payable _profiteer, uint256 _deadline) external {        \r\n        require(block.number <= _deadline, \"Deadline exceeded\");\r\n\r\n        // i = the one I borrow, and then trade to j on curve        \r\n        address tokenPay = curveCoins[uint(_pay)]; // curveFiTrader.underlying_coins(_pay);\r\n        address tokenBorrow = curveCoins[uint(_borrow)]; // curveFiTrader.underlying_coins(_borrow);\r\n        \r\n        bytes memory _userData = abi.encode(_borrow, _pay); // We swap _borrow -> _pay on curve.\r\n\r\n        // Start the flash swap. Will aquire _amount of _tokenBorrow, and run execute defined below, before paying back loan \r\n        startSwap(_tri, tokenBorrow, _borrowAmount, tokenPay, _userData);\r\n\r\n        // When the flash-loan is executed. We extract the profit.\r\n        extractFunds(tokenPay, _profiteer);\r\n    }\r\n\r\n    function flashSwap(bool _tri, int128 _borrow, int128 _pay, uint256 _borrowAmount, address payable _profiteer) external {        \r\n        // i = the one I borrow, and then trade to j on curve        \r\n        address tokenPay = curveCoins[uint(_pay)]; // curveFiTrader.underlying_coins(_pay);\r\n        address tokenBorrow = curveCoins[uint(_borrow)]; // curveFiTrader.underlying_coins(_borrow);\r\n        \r\n        bytes memory _userData = abi.encode(_borrow, _pay); // We swap _borrow -> _pay on curve.\r\n\r\n        // Start the flash swap. Will aquire _amount of _tokenBorrow, and run execute defined below, before paying back loan \r\n        startSwap(_tri, tokenBorrow, _borrowAmount, tokenPay, _userData);\r\n\r\n        // When the flash-loan is executed. We extract the profit.\r\n        extractFunds(tokenPay, _profiteer);\r\n    }\r\n        \r\n    function extractFunds(address _token, address payable _to) public{\r\n        //require (msg.sender == owner, \"Not owner\");\r\n        uint balance = getBalanceOf(_token);\r\n        \r\n        if (_token == address(0)){\r\n            _to.transfer(balance);\r\n        } else {\r\n            tokenTransfer(_token, _to, balance);\r\n        }\r\n    }\r\n\r\n    function getBalanceOf(address _input) public view returns (uint) {\r\n        if (_input == address(0)) {\r\n            return address(this).balance;\r\n        }\r\n        return IERC20(_input).balanceOf(address(this));\r\n    }\r\n\r\n\r\n    // @notice This is where your custom logic goes\r\n    // @dev When this code executes, this contract will hold _amount of _tokenBorrow\r\n    // @dev It is important that, by the end of the execution of this function, this contract holds\r\n    //     at least _amountToRepay of the _tokenPay token\r\n    // @dev Paying back the flash-loan happens automatically for you -- DO NOT pay back the loan in this function\r\n    // @param _tokenBorrow The address of the token you flash-borrowed, address(0) indicates ETH\r\n    // @param _amount The amount of the _tokenBorrow token you borrowed\r\n    // @param _tokenPay The address of the token in which you'll repay the flash-borrow, address(0) indicates ETH\r\n    // @param _amountToRepay The amount of the _tokenPay token that will be auto-removed from this contract to pay back\r\n    //        the flash-borrow when this function finishes executing\r\n    // @param _userData Any data you privided to the flashBorrow function when you called it\r\n    function execute(address _tokenBorrow, uint _amount, address _tokenPay, uint _amountToRepay, bytes memory _userData) internal override {\r\n        if (false){\r\n            _tokenPay;\r\n            _amountToRepay;\r\n        }\r\n\r\n        (int128 _i, int128 _j) = abi.decode(_userData, (int128, int128));\r\n\r\n        // Step 1. Approve _tokenBorrow for amount to Curve.\r\n        tokenApprove(_tokenBorrow, 0xA5407eAE9Ba41422680e2e00537571bcC53efBfD, _amount);\r\n\r\n        // We need to convert to the proper number of, i.e., the final argument should be _amountToRepay.\r\n        curveFiTrader.exchange_underlying(_i, _j, _amount, 0);\r\n    }\r\n    \r\n}\r\n",
  "sourcePath": "D:/GitHub/Defi/ArbSwapper/contracts/CurveArb.sol",
  "compiler": {
    "name": "solc",
    "version": "0.7.1+commit.f4a555be.Emscripten.clang"
  },
  "schemaVersion": "3.2.4",
  "updatedAt": "2020-09-21T20:45:21.679Z",
  "devdoc": {
    "kind": "dev",
    "methods": {},
    "version": 1
  },
  "userdoc": {
    "kind": "user",
    "methods": {},
    "version": 1
  }
}